{"abi":[{"type":"constructor","inputs":[],"stateMutability":"nonpayable"},{"type":"function","name":"borrow","inputs":[{"name":"order","type":"tuple","internalType":"struct RenftMarket.RentoutOrder","components":[{"name":"maker","type":"address","internalType":"address"},{"name":"nft_ca","type":"address","internalType":"address"},{"name":"token_id","type":"uint256","internalType":"uint256"},{"name":"daily_rent","type":"uint256","internalType":"uint256"},{"name":"max_rental_duration","type":"uint256","internalType":"uint256"},{"name":"min_collateral","type":"uint256","internalType":"uint256"},{"name":"list_endtime","type":"uint256","internalType":"uint256"}]},{"name":"makerSignature","type":"bytes","internalType":"bytes"}],"outputs":[],"stateMutability":"payable"},{"type":"function","name":"cancelOrder","inputs":[{"name":"order","type":"tuple","internalType":"struct RenftMarket.RentoutOrder","components":[{"name":"maker","type":"address","internalType":"address"},{"name":"nft_ca","type":"address","internalType":"address"},{"name":"token_id","type":"uint256","internalType":"uint256"},{"name":"daily_rent","type":"uint256","internalType":"uint256"},{"name":"max_rental_duration","type":"uint256","internalType":"uint256"},{"name":"min_collateral","type":"uint256","internalType":"uint256"},{"name":"list_endtime","type":"uint256","internalType":"uint256"}]},{"name":"makerSignature","type":"bytes","internalType":"bytes"}],"outputs":[],"stateMutability":"nonpayable"},{"type":"function","name":"canceledOrders","inputs":[{"name":"","type":"bytes32","internalType":"bytes32"}],"outputs":[{"name":"","type":"bool","internalType":"bool"}],"stateMutability":"view"},{"type":"function","name":"eip712Domain","inputs":[],"outputs":[{"name":"fields","type":"bytes1","internalType":"bytes1"},{"name":"name","type":"string","internalType":"string"},{"name":"version","type":"string","internalType":"string"},{"name":"chainId","type":"uint256","internalType":"uint256"},{"name":"verifyingContract","type":"address","internalType":"address"},{"name":"salt","type":"bytes32","internalType":"bytes32"},{"name":"extensions","type":"uint256[]","internalType":"uint256[]"}],"stateMutability":"view"},{"type":"function","name":"orderHash","inputs":[{"name":"order","type":"tuple","internalType":"struct RenftMarket.RentoutOrder","components":[{"name":"maker","type":"address","internalType":"address"},{"name":"nft_ca","type":"address","internalType":"address"},{"name":"token_id","type":"uint256","internalType":"uint256"},{"name":"daily_rent","type":"uint256","internalType":"uint256"},{"name":"max_rental_duration","type":"uint256","internalType":"uint256"},{"name":"min_collateral","type":"uint256","internalType":"uint256"},{"name":"list_endtime","type":"uint256","internalType":"uint256"}]}],"outputs":[{"name":"","type":"bytes32","internalType":"bytes32"}],"stateMutability":"view"},{"type":"function","name":"orders","inputs":[{"name":"","type":"bytes32","internalType":"bytes32"}],"outputs":[{"name":"taker","type":"address","internalType":"address"},{"name":"collateral","type":"uint256","internalType":"uint256"},{"name":"start_time","type":"uint256","internalType":"uint256"},{"name":"rentinfo","type":"tuple","internalType":"struct RenftMarket.RentoutOrder","components":[{"name":"maker","type":"address","internalType":"address"},{"name":"nft_ca","type":"address","internalType":"address"},{"name":"token_id","type":"uint256","internalType":"uint256"},{"name":"daily_rent","type":"uint256","internalType":"uint256"},{"name":"max_rental_duration","type":"uint256","internalType":"uint256"},{"name":"min_collateral","type":"uint256","internalType":"uint256"},{"name":"list_endtime","type":"uint256","internalType":"uint256"}]}],"stateMutability":"view"},{"type":"event","name":"BorrowNFT","inputs":[{"name":"taker","type":"address","indexed":true,"internalType":"address"},{"name":"maker","type":"address","indexed":true,"internalType":"address"},{"name":"orderHash","type":"bytes32","indexed":false,"internalType":"bytes32"},{"name":"collateral","type":"uint256","indexed":false,"internalType":"uint256"}],"anonymous":false},{"type":"event","name":"EIP712DomainChanged","inputs":[],"anonymous":false},{"type":"event","name":"OrderCanceled","inputs":[{"name":"maker","type":"address","indexed":true,"internalType":"address"},{"name":"orderHash","type":"bytes32","indexed":false,"internalType":"bytes32"}],"anonymous":false},{"type":"error","name":"ECDSAInvalidSignature","inputs":[]},{"type":"error","name":"ECDSAInvalidSignatureLength","inputs":[{"name":"length","type":"uint256","internalType":"uint256"}]},{"type":"error","name":"ECDSAInvalidSignatureS","inputs":[{"name":"s","type":"bytes32","internalType":"bytes32"}]},{"type":"error","name":"InvalidShortString","inputs":[]},{"type":"error","name":"StringTooLong","inputs":[{"name":"str","type":"string","internalType":"string"}]}],"bytecode":{"object":"0x6101606040527fbbc35cf63a37dd5a1160f6328e970196970e5dd8bf05740d155467cf5e4dfb4d60025534801561003557600080fd5b50604080518082018252600b81526a14995b999d13585c9ad95d60aa1b602080830191909152825180840190935260018352603160f81b908301529061007c826000610126565b6101205261008b816001610126565b61014052815160208084019190912060e052815190820120610100524660a05261011860e05161010051604080517f8b73c3c69bb8fe3d512ecc4cf759cc79239f7b179b0ffacaa9a75d522b39400f60208201529081019290925260608201524660808201523060a082015260009060c00160405160208183030381529060405280519060200120905090565b60805250503060c052610373565b60006020835110156101425761013b83610159565b9050610153565b8161014d8482610241565b5060ff90505b92915050565b600080829050601f8151111561018d578260405163305a27a960e01b81526004016101849190610300565b60405180910390fd5b80516101988261034f565b179392505050565b634e487b7160e01b600052604160045260246000fd5b600181811c908216806101ca57607f821691505b6020821081036101ea57634e487b7160e01b600052602260045260246000fd5b50919050565b601f82111561023c576000816000526020600020601f850160051c810160208610156102195750805b601f850160051c820191505b8181101561023857828155600101610225565b5050505b505050565b81516001600160401b0381111561025a5761025a6101a0565b61026e8161026884546101b6565b846101f0565b602080601f8311600181146102a3576000841561028b5750858301515b600019600386901b1c1916600185901b178555610238565b600085815260208120601f198616915b828110156102d2578886015182559484019460019091019084016102b3565b50858210156102f05787850151600019600388901b60f8161c191681555b5050505050600190811b01905550565b60006020808352835180602085015260005b8181101561032e57858101830151858201604001528201610312565b506000604082860101526040601f19601f8301168501019250505092915050565b805160208083015191908110156101ea5760001960209190910360031b1b16919050565b60805160a05160c05160e0516101005161012051610140516111896103cd60003960006109fc015260006109ca01526000610afc01526000610ad401526000610a2f01526000610a5901526000610a8301526111896000f3fe6080604052600436106100555760003560e01c806304f6789c1461005a578063287eca0d1461008d57806384b0196e146100af5780639c3f1e90146100d7578063b163f809146101f5578063e30b47fe14610208575b600080fd5b34801561006657600080fd5b5061007a610075366004610e50565b610248565b6040519081526020015b60405180910390f35b34801561009957600080fd5b506100ad6100a8366004610e73565b6102fd565b005b3480156100bb57600080fd5b506100c461046c565b6040516100849796959493929190610f3e565b3480156100e357600080fd5b506101766100f2366004610fd7565b600360208181526000928352604092839020805460018201546002830154865160e081018852958401546001600160a01b03908116875260048501548116958701959095526005840154968601969096526006830154606086015260078301546080860152600883015460a086015260099092015460c08501529190911692909184565b604051610084949392919060006101408201905060018060a01b03808716835285602084015284604084015280845116606084015280602085015116608084015250604083015160a0830152606083015160c0830152608083015160e083015260a083015161010083015260c083015161012083015295945050505050565b6100ad610203366004610e73565b6104b2565b34801561021457600080fd5b50610238610223366004610fd7565b60046020526000908152604090205460ff1681565b6040519015158152602001610084565b6002546000906102f79061025f602085018561100c565b61026f604086016020870161100c565b8560400135866060013587608001358860a001358960c001356040516020016102dc9897969594939291909788526001600160a01b0396871660208901529490951660408701526060860192909252608085015260a084015260c083019190915260e08201526101000190565b6040516020818303038152906040528051906020012061096c565b92915050565b600061030884610248565b60008181526004602052604090205490915060ff161561037b5760405162461bcd60e51b815260206004820152602360248201527f52656e66744d61726b65743a206f7264657220616c72656164792063616e63656044820152621b195960ea1b60648201526084015b60405180910390fd5b60006103bd8285858080601f01602080910402602001604051908101604052809392919081815260200183838082843760009201919091525061099992505050565b90506103cc602086018661100c565b6001600160a01b0316816001600160a01b03161480156103f457506001600160a01b03811633145b6104105760405162461bcd60e51b815260040161037290611027565b60008281526004602052604090819020805460ff191660011790555133907f35ab4a1a0e9bec7fd7ae164679b9cc00e6568e4db238d8055a75b1862f62ec2e9061045d9085815260200190565b60405180910390a25050505050565b6000606080600080600060606104806109c3565b6104886109f5565b60408051600080825260208201909252600f60f81b9b939a50919850469750309650945092509050565b8260c0013542106105055760405162461bcd60e51b815260206004820152601a60248201527f52656e66744d61726b65743a206f7264657220657870697265640000000000006044820152606401610372565b8260a001353410156105655760405162461bcd60e51b8152602060048201526024808201527f52656e66744d61726b65743a20696e73756666696369656e7420636f6c6c6174604482015263195c985b60e21b6064820152608401610372565b60008360a00135116105d05760405162461bcd60e51b815260206004820152602e60248201527f52656e66744d61726b65743a20636f6c6c61746572616c206d7573742062652060448201526d067726561746572207468616e20360941b6064820152608401610372565b336105de602085018561100c565b6001600160a01b03160361064e5760405162461bcd60e51b815260206004820152603160248201527f52656e66744d61726b65743a206d616b65722063616e2774206265207468652060448201527039b0b6b29030b9903a3432903a30b5b2b960791b6064820152608401610372565b600061065984610248565b6000818152600360205260409020549091506001600160a01b0316156106c15760405162461bcd60e51b815260206004820181905260248201527f52656e66744d61726b65743a206f7264657220616c72656164792074616b656e6044820152606401610372565b60008181526004602052604090205460ff16156107205760405162461bcd60e51b815260206004820152601b60248201527f52656e66744d61726b65743a206f726465722063616e63656c656400000000006044820152606401610372565b60006107628285858080601f01602080910402602001604051908101604052809392919081815260200183838082843760009201919091525061099992505050565b9050610771602086018661100c565b6001600160a01b0316816001600160a01b0316146107a15760405162461bcd60e51b815260040161037290611027565b6040518060800160405280336001600160a01b03168152602001348152602001428152602001868036038101906107d8919061106b565b9052600083815260036020818152604092839020845181546001600160a01b039182166001600160a01b03199182161783558684015160018401558686015160028401556060968701518051958401805496841696831696909617909555848401516004840180549190931691161790558284015160058201559382015160068501556080820151600785015560a0820151600885015560c09091015160099093019290925561088d9190870190870161100c565b6001600160a01b03166342842e0e6108a8602088018861100c565b604080516001600160e01b031960e085901b1681526001600160a01b0390921660048301523360248301528801356044820152606401600060405180830381600087803b1580156108f857600080fd5b505af115801561090c573d6000803e3d6000fd5b5061091e92505050602086018661100c565b604080518481523460208201526001600160a01b03929092169133917f7929693e37b2c3c824e1eae6e2c97cbdb175614dfe9c08449a852ec53c8cb853910160405180910390a35050505050565b60006102f7610979610a22565b8360405161190160f01b8152600281019290925260228201526042902090565b6000806000806109a98686610b4d565b9250925092506109b98282610b9a565b5090949350505050565b60606109f07f00000000000000000000000000000000000000000000000000000000000000006000610c57565b905090565b60606109f07f00000000000000000000000000000000000000000000000000000000000000006001610c57565b6000306001600160a01b037f000000000000000000000000000000000000000000000000000000000000000016148015610a7b57507f000000000000000000000000000000000000000000000000000000000000000046145b15610aa557507f000000000000000000000000000000000000000000000000000000000000000090565b6109f0604080517f8b73c3c69bb8fe3d512ecc4cf759cc79239f7b179b0ffacaa9a75d522b39400f60208201527f0000000000000000000000000000000000000000000000000000000000000000918101919091527f000000000000000000000000000000000000000000000000000000000000000060608201524660808201523060a082015260009060c00160405160208183030381529060405280519060200120905090565b60008060008351604103610b875760208401516040850151606086015160001a610b7988828585610d02565b955095509550505050610b93565b50508151600091506002905b9250925092565b6000826003811115610bae57610bae611109565b03610bb7575050565b6001826003811115610bcb57610bcb611109565b03610be95760405163f645eedf60e01b815260040160405180910390fd5b6002826003811115610bfd57610bfd611109565b03610c1e5760405163fce698f760e01b815260048101829052602401610372565b6003826003811115610c3257610c32611109565b03610c53576040516335e2f38360e21b815260048101829052602401610372565b5050565b606060ff8314610c7157610c6a83610dd1565b90506102f7565b818054610c7d9061111f565b80601f0160208091040260200160405190810160405280929190818152602001828054610ca99061111f565b8015610cf65780601f10610ccb57610100808354040283529160200191610cf6565b820191906000526020600020905b815481529060010190602001808311610cd957829003601f168201915b505050505090506102f7565b600080807f7fffffffffffffffffffffffffffffff5d576e7357a4501ddfe92f46681b20a0841115610d3d5750600091506003905082610dc7565b604080516000808252602082018084528a905260ff891692820192909252606081018790526080810186905260019060a0016020604051602081039080840390855afa158015610d91573d6000803e3d6000fd5b5050604051601f1901519150506001600160a01b038116610dbd57506000925060019150829050610dc7565b9250600091508190505b9450945094915050565b60606000610dde83610e10565b604080516020808252818301909252919250600091906020820181803683375050509182525060208101929092525090565b600060ff8216601f8111156102f757604051632cd44ac360e21b815260040160405180910390fd5b600060e08284031215610e4a57600080fd5b50919050565b600060e08284031215610e6257600080fd5b610e6c8383610e38565b9392505050565b60008060006101008486031215610e8957600080fd5b610e938585610e38565b925060e084013567ffffffffffffffff80821115610eb057600080fd5b818601915086601f830112610ec457600080fd5b813581811115610ed357600080fd5b876020828501011115610ee557600080fd5b6020830194508093505050509250925092565b6000815180845260005b81811015610f1e57602081850181015186830182015201610f02565b506000602082860101526020601f19601f83011685010191505092915050565b60ff60f81b881681526000602060e06020840152610f5f60e084018a610ef8565b8381036040850152610f71818a610ef8565b606085018990526001600160a01b038816608086015260a0850187905284810360c08601528551808252602080880193509091019060005b81811015610fc557835183529284019291840191600101610fa9565b50909c9b505050505050505050505050565b600060208284031215610fe957600080fd5b5035919050565b80356001600160a01b038116811461100757600080fd5b919050565b60006020828403121561101e57600080fd5b610e6c82610ff0565b60208082526024908201527f52656e66744d61726b65743a20696e76616c6964206d616b6572207369676e616040820152637475726560e01b606082015260800190565b600060e0828403121561107d57600080fd5b60405160e0810181811067ffffffffffffffff821117156110ae57634e487b7160e01b600052604160045260246000fd5b6040526110ba83610ff0565b81526110c860208401610ff0565b602082015260408301356040820152606083013560608201526080830135608082015260a083013560a082015260c083013560c08201528091505092915050565b634e487b7160e01b600052602160045260246000fd5b600181811c9082168061113357607f821691505b602082108103610e4a57634e487b7160e01b600052602260045260246000fdfea264697066735822122017fb0c3bbf77c96c3fad74db9dda49da302025e60ea66e19060bbd8d4ccb5a2064736f6c63430008190033","linkReferences":{}},"methodIdentifiers":{"borrow((address,address,uint256,uint256,uint256,uint256,uint256),bytes)":"b163f809","cancelOrder((address,address,uint256,uint256,uint256,uint256,uint256),bytes)":"287eca0d","canceledOrders(bytes32)":"e30b47fe","eip712Domain()":"84b0196e","orderHash((address,address,uint256,uint256,uint256,uint256,uint256))":"04f6789c","orders(bytes32)":"9c3f1e90"},"storageLayout":{"storage":[{"astId":2894,"contract":"src/RenftMarket.sol:RenftMarket","label":"_nameFallback","offset":0,"slot":"0","type":"t_string_storage"},{"astId":2896,"contract":"src/RenftMarket.sol:RenftMarket","label":"_versionFallback","offset":0,"slot":"1","type":"t_string_storage"},{"astId":4368,"contract":"src/RenftMarket.sol:RenftMarket","label":"ORDER_TYPE_HASH","offset":0,"slot":"2","type":"t_bytes32"},{"astId":4389,"contract":"src/RenftMarket.sol:RenftMarket","label":"orders","offset":0,"slot":"3","type":"t_mapping(t_bytes32,t_struct(BorrowOrder)4640_storage)"},{"astId":4393,"contract":"src/RenftMarket.sol:RenftMarket","label":"canceledOrders","offset":0,"slot":"4","type":"t_mapping(t_bytes32,t_bool)"}],"types":{"t_address":{"encoding":"inplace","label":"address","numberOfBytes":"20"},"t_bool":{"encoding":"inplace","label":"bool","numberOfBytes":"1"},"t_bytes32":{"encoding":"inplace","label":"bytes32","numberOfBytes":"32"},"t_mapping(t_bytes32,t_bool)":{"encoding":"mapping","key":"t_bytes32","label":"mapping(bytes32 => bool)","numberOfBytes":"32","value":"t_bool"},"t_mapping(t_bytes32,t_struct(BorrowOrder)4640_storage)":{"encoding":"mapping","key":"t_bytes32","label":"mapping(bytes32 => struct RenftMarket.BorrowOrder)","numberOfBytes":"32","value":"t_struct(BorrowOrder)4640_storage"},"t_string_storage":{"encoding":"bytes","label":"string","numberOfBytes":"32"},"t_struct(BorrowOrder)4640_storage":{"encoding":"inplace","label":"struct RenftMarket.BorrowOrder","numberOfBytes":"320","members":[{"astId":4632,"contract":"src/RenftMarket.sol:RenftMarket","label":"taker","offset":0,"slot":"0","type":"t_address"},{"astId":4634,"contract":"src/RenftMarket.sol:RenftMarket","label":"collateral","offset":0,"slot":"1","type":"t_uint256"},{"astId":4636,"contract":"src/RenftMarket.sol:RenftMarket","label":"start_time","offset":0,"slot":"2","type":"t_uint256"},{"astId":4639,"contract":"src/RenftMarket.sol:RenftMarket","label":"rentinfo","offset":0,"slot":"3","type":"t_struct(RentoutOrder)4630_storage"}]},"t_struct(RentoutOrder)4630_storage":{"encoding":"inplace","label":"struct RenftMarket.RentoutOrder","numberOfBytes":"224","members":[{"astId":4617,"contract":"src/RenftMarket.sol:RenftMarket","label":"maker","offset":0,"slot":"0","type":"t_address"},{"astId":4619,"contract":"src/RenftMarket.sol:RenftMarket","label":"nft_ca","offset":0,"slot":"1","type":"t_address"},{"astId":4621,"contract":"src/RenftMarket.sol:RenftMarket","label":"token_id","offset":0,"slot":"2","type":"t_uint256"},{"astId":4623,"contract":"src/RenftMarket.sol:RenftMarket","label":"daily_rent","offset":0,"slot":"3","type":"t_uint256"},{"astId":4625,"contract":"src/RenftMarket.sol:RenftMarket","label":"max_rental_duration","offset":0,"slot":"4","type":"t_uint256"},{"astId":4627,"contract":"src/RenftMarket.sol:RenftMarket","label":"min_collateral","offset":0,"slot":"5","type":"t_uint256"},{"astId":4629,"contract":"src/RenftMarket.sol:RenftMarket","label":"list_endtime","offset":0,"slot":"6","type":"t_uint256"}]},"t_uint256":{"encoding":"inplace","label":"uint256","numberOfBytes":"32"}}},"id":20}